:020000040800F2
:10000000005000208D6C0008C16C0008C16C000815
:10001000C16C0008C16C0008C16C00080000000041
:10002000000000000000000000000000C16B00089C
:10003000C16C0008000000002B6C0008616C000817
:10004000C16C0008C16C0008C16C0008C16C0008DC
:10005000C16C0008C16C0008C16C0008C16C0008CC
:10006000C16C0008C16C0008C16C0008C16C0008BC
:10007000C16C0008C16C0008C16C0008C16C0008AC
:10008000C16C0008C16C0008C16C0008A12E0008FA
:10009000A52E0008C16C00089D2D0008C16C000849
:1000A000C16C0008C16C0008C16C0008C16C00087C
:1000B000C16C0008C16C0008C16C0008C16C00086C
:1000C000C16C0008C16C0008C16C0008C16C00085C
:1000D000C16C0008C16C0008C16C0008C16C00084C
:1000E000C16C0008C16C0008C16C00080000000071
:1000F0000000000000000000000000000000000000
:1001000000000000000000005FF808F110B5054C89
:10011000237833B9044B13B10448AFF300800123B3
:10012000237010BDF80200200000000088A600081F
:100130000C4B43B10C4810B50C49AFF300800C4890
:10014000036823B910BD0A48036833B97047094BE7
:10015000002BF7D0BDE810401847064B002BF5D018
:10016000184700BF0000000088A60008FC0200201D
:10017000F00200200000000043680B7043681B0A77
:100180004B70C3888B70C379CB7083680B718368A5
:100190001B0A4B7143898B71C37A0820CB7170475E
:1001A0000B7843604A7843EA022343608A7843EA43
:1001B00002434360CA7843EA026343600B79836079
:1001C0004A7943EA022383608A7943EA02438360DF
:1001D000CA7943EA02638360082070470048704789
:1001E000F99C000800487047D89C000800487047F8
:1001F0006A9C000800487047499C00080048704706
:10020000369C000800487047159C0008004870475D
:10021000839C000800487047F49B00080048704722
:10022000289D000800487047079D000890F8E805E1
:10023000704738B504460D461C22002107F095FF93
:100240002046294601F0A9F8204638BD70B516466B
:1002500004461D46FFF7EDFF314604F11C00FFF791
:10026000E8FF294604F13800FFF7E3FF01F036F913
:1002700004F15400BDF9101003F0B0FA01F044F994
:10028000204670BD38B50D4604460021284607F0CB
:100290008FFBE36988B1A26A05F100451360236C06
:1002A000A26B1A6001F01AF9294604F1540003F018
:1002B0007FF9BDE8384001F027B9626A1360636CCA
:1002C000EEE7F0B51F46012385B004AD05F8041D27
:1002D000017900930446164600682A4606F060F845
:1002E0000023217900932A460223206806F079F83A
:1002F0009DF80C309DF80D0040EA0320384006F0D0
:1003000033FE044630460D4606F01EFE02460B46FE
:100310002046294606F0B8FF0446BDF828000D46E1
:1003200006F022FE02460B462046294606F082FED3
:1003300005B0F0BD3C482DE9F047836802683B4CAE
:100340001A602268A36888B01A604FF00041FFF776
:1003500099FF20464FF00041FFF794FF344D354C94
:1003600006234FF480520093212140F6FF7330485A
:10037000FFF7A7FF0B4669790246002946D0002106
:100380004FF000084FF00009C5E902236971062308
:100390004FF480520093212140F6FF732548FFF768
:1003A00090FF0B4661790246002936D000210026D5
:1003B0000027C4E9022361714FF0640A40F2FF3361
:1003C000CDF800A04FF4806228462321FFF779FF83
:1003D000CDF800A0CDE9060140F2FF334FF4806272
:1003E00020462321FFF76DFFDDE90623CDE900015B
:1003F000CDE90423CDE9028932463B460E490F4838
:1004000005F066FE504606F02FF9A9E7D5E902018E
:1004100006F05CFC80468946B9E7D4E9020106F0A3
:1004200055FC06460F46C7E78C0400202004002038
:100430003803002028030020389D0008D80B002036
:10044000C36810B504460BB19B689847204610BDA1
:1004500070B506460D4B044646F8983B5EB100F178
:10046000B805B54207D0103DEB68002BF9D09B686A
:1004700028469847F5E704F13800FFF7E1FF04F15B
:100480002800FFF7DDFF204670BD00BFC0A20008B6
:1004900010B50446FFF7DCFF204606F056FA20466A
:1004A00010BD000010B50446084BD03040F8D03CD9
:1004B000203340F8143C06F04DFB04F1BC0005F07D
:1004C000F5FD2046FFF7C4FF204610BD44A20008FA
:1004D000A0F1BC00E6E700BF10B50446034B40F8AE
:1004E000043BFFF7ADFF204610BD00BFA0A30008EE
:1004F00010B50446FFF7F0FF204606F026FA204626
:1005000010BD0023013821FA03F20833202B00F834
:10051000012FF8D1704783882DE9F0410B70838853
:1005200005461B0A4B7080680C4608F0DEFC074647
:100530000146A01CFFF7E5FF3A46A968A01D07F099
:10054000EFFDE86808F0D1FC064607F10608014611
:100550000A3704EB0800FFF7D4FF3246E968E019D8
:1005600007F0DEFD286908F0C0FC3E44074601465E
:10057000A0190436FFF7C5FF3A46A019296907F00C
:10058000CFFD6B693E44A3551A0A344462701A0CBD
:100590001B0EA270E370301DBDE8F08170B50646F9
:1005A00040680D4608F0A1FC044601462846FFF7C6
:1005B000A8FF22467168281D07F0B2FD201D70BDFE
:1005C00043682DE9F0410B7043680D461B0A4B70E0
:1005D000C3880A1D8B70C3790446CB700021606804
:1005E000531B814202F104020FD2E36853F8213019
:1005F0000131180A02F8043C02F8030C180C1B0E17
:1006000002F8020C02F8013CE9E72269EA54216988
:10061000EA18090A5170618A04339170E17C2B4415
:10062000D170002122695E1B914203F104030FD2B5
:10063000A26952F821200131100A03F8042C03F8B2
:10064000030C100C120E03F8020C03F8012CE9E75E
:100650000027E369AB55E269AB19120A5A70E28BC5
:1006600004369A70E27FDA70E3699F4214D2636ABB
:1006700053F8270008F039FC80460146A819FFF717
:1006800040FF636A043653F82710A819424607F062
:1006900047FD46440137E7E73046BDE8F081F8B54D
:1006A0000E460379054606F8013B80680F4608F0C0
:1006B0001CFC044601463046FFF723FF2246A9688A
:1006C000781D07F02DFD601DF8BD002310B50360F7
:1006D000013911F8012F02FA03F4026808332243AA
:1006E000202B0260F5D110BDF0B50C460B7885B01B
:1006F00083804A78064643EA02238380023101A8B8
:10070000FFF7E3FF019FA31DBD1D1A1B954204D9EE
:1007100013F8012B03F8022CF7E70022E3195A71B2
:10072000631DB360611902A8FFF7CFFF2B1D029D67
:1007300007F10A021D442244111B8D4204D912F80C
:10074000011B02F8021CF7E70022013B6119234458
:1007500001F8012C03A8F360FFF7B7FF03980435F5
:10076000284463191A1B904204D913F8012B03F88B
:10077000022CF7E70023013D2218254402F8013C32
:100780003561937851781B0443EA0123215CD278C8
:100790000B4343EA02630430736105B0F0BD2DE9F9
:1007A000F34143680D6804469D420E4604D9A900F2
:1007B000C06808F0FFF9E06000216560321D6068E4
:1007C000931B814202F1040213D212F8023C12F888
:1007D000030C1B0443EA002312F8040C034312F831
:1007E000010C43EA0063E068A36040F82130013166
:1007F000E5E7F21895785078F15C2D0445EA00257C
:10080000D2780D431F1D236945EA02659D4204D934
:10081000A900A06908F0CEF9A06100212561F319B3
:1008200022699D1B914203F1040313D213F8022C99
:1008300013F8030C120442EA002213F8040C0243DA
:1008400013F8010C42EA0062A069626140F82120BD
:100850000131E5E773199F785978725D3F04DB78C1
:1008600047EA0127174347EA0367E36904359F42D4
:1008700004D9B900606A08F09DF96062E761002759
:10088000B846E3699F421AD2711901A8FFF71DFF0C
:100890002B1D019DF2181D44911BA94204D212F890
:1008A000011B02F8021CF7E7721902F8018C013BE8
:1008B000626A3344236242F827300137E1E7284671
:1008C00002B0BDE8F08137B50C4611F8013B054692
:1008D000037101A8FFF7F9FE019B621D581D111B52
:1008E000884204D912F8011B02F8021CF7E7002223
:1008F000234404341A71AC6003B030BD37B50C46E4
:10090000054601A8FFF7E1FE019B221D181D111BE2
:10091000884204D912F8011B02F8021CF7E70022F2
:1009200023440334DA706C6003B030BD10B5044664
:10093000FFF7B8FD204606F008F8204610BDA0F1EC
:10094000BC00F3E730B50A4B85B0044601930023A1
:100950000293039354F8EC3B01AA1B680A21054655
:100960009847204605F004FBC5F8FC0005B030BDF3
:10097000689B000800222DE9F04105464FF40077FE
:10098000294B86B00093294BADF8042002930393C2
:100990000493059200F20C5400F5AE662368BBB1D7
:1009A0009A685868ADF804201A68036802929B6838
:1009B00098472368039058680368DB689847216864
:1009C0002B68049005971B686A4609692846984772
:1009D0000434B442E2D14FF4007705F2D4562068D3
:1009E000C8B14368ADF804308368029303689B681C
:1009F0009847039020680368DB6898472B68049049
:100A00002068D3F80080036805975B6898476A46BA
:100A100001462846C0470434A642E0D1012385F8A8
:100A2000E83506B0BDE8F081809B0008019E000813
:100A3000F0B5214B85B0019300230E46044600F12A
:100A4000EC0528460293039305F092FA31464FF4E1
:100A50007A76D4F8FC20871A01A8FFF7A1FBB7FB30
:100A6000F6F2029B2846134406FB12720293134FC0
:100A7000039B07FB0232039205F07AFAB0FBF6F310
:100A8000029A0399013AD21A06FB1303C4F8002113
:100A90000B4A04F580700A4407FB132304F58271A6
:100AA000C4F8043100F080FA284605F061FAC4F871
:100AB000F00505B0F0BD00BF689B000840420F0084
:100AC00000CA9A3B73B5574C574B2046002540F857
:100AD000043B04230322022104F1EC068DE82800E4
:100AE0004FF4807300F028FB304605F057FA4FF4BE
:100AF000614330464FF40076C4F8E83005F00CFA54
:100B00003246294604F58670C4F8FC50C4F80051FA
:100B1000C4F80451C4F8085107F027FB3246642694
:100B2000294604F5437007F020FB3246294604F2BB
:100B30000C5007F01AFB3246294604F5AE6007F068
:100B400014FB3A4B3A4EC4F8FC350023C4F8005667
:100B5000C4F80456C4F80856C4F80C56C4F8103645
:100B6000C4F81456C4F81856C4F81C56C4F82056D5
:100B7000324630492046C4F8D455C4F8D855C4F894
:100B8000DC55C4F8E055C4F8E45584F8E855C4F8D9
:100B9000EC55C4F8F055C4F8F45584F8F85505F050
:100BA0009FFE254A254B26491360264B264C536051
:100BB000264B204683E806001D614FF4165303229E
:100BC000009302212B4605F0ABF82046204C32461C
:100BD000204905F085FE18221921204605F088FBE2
:100BE00032461D49204605F07BFE1423294600931A
:100BF000082209231948FFF729FB1A23152200931D
:100C0000012127231648FFF721FB3C22154B7821B1
:100C10001A7101221C605A71134B1C6019715A71B0
:100C200002B070BDF8040020E09B0008B09B0008F3
:100C3000EC0000204D0F0008040C0020C89B0008A9
:100C4000EC9B0008019E00081C0B002014030020F0
:100C500048030020A5040008D90400088C040020E3
:100C60002004002038030020280300202DE9F0474D
:100C7000044600F1EC08404605F07AF942F6F82205
:100C8000D4F8F0350546C31A934284BF002384F894
:100C9000E835D4F8D43533B1D4F8F43583423CBFC9
:100CA0000023C4F8D435002604F1040904F586773E
:100CB000D4F80831ABB9484600F084F9E8B994F8A3
:100CC000E80560B140F6C412D4F8EC35EB1A934253
:100CD00004D92046FFF736FEC4F8EC550020BDE8E5
:100CE000F087404605F044F9D4F80831401B98429B
:100CF000E1D96FF00100BDE8F087484600F06CF9DB
:100D00000028DCDBD4F8E435D4F8D4A50344BAF1E8
:100D1000070FC4F8E43512D1D4F8E0355A1C234447
:100D2000C4F8E02583F80C01D4F8D835013BC4F8A9
:100D3000D835002BBCD10823C4F8D435B8E7BAF1B4
:100D4000000F14D1FF2807D10123C4F8D43505F1D1
:100D50001403C4F8F435ABE7404605F009F941F255
:100D60008833401B9842A3D984F8E8A5C1E7BAF1BB
:100D7000010F0DD1FE2801D10223DDE794F8E835FB
:100D8000C4F8D465002B93D12046FFF7DBFD8FE735
:100D9000BAF1020F09D10323C4F8D805C4F8E065FD
:100DA000C4F8D435C4F8E40582E7BAF1030F07D1DB
:100DB000D4F8D83503EB0020C4F8D8050423BBE7EA
:100DC000BAF1040F0BD15A42D2B2DBB258BF534230
:100DD000FF2B01D10523AFE7C4F8D46568E7BAF16A
:100DE000050F03D1C4F8DC050623D9E7BAF1060FD5
:100DF0000BD1D4F8DC3503EB00200723C4F8DC0565
:100E0000C4F8D435D4F8D83593E7BAF1080F7FF495
:100E10004FAF5A42D2B2DBB258BF5342FF2BC4F895
:100E2000D4657FF445AFD4F8DC356BB92046FFF7C5
:100E300089FD2046FFF79EFDC4F8EC55C4F8F05537
:100E40004FF0FF30BDE8F0870A2B04D13946204629
:100E5000FFF7EEFD2CE7062B08D1394604F2FC50D3
:100E6000FFF79DFC012384F8F83521E70B2B02D115
:100E700084F8E8651CE7F83354F8230000283FF4B1
:100E800017AF036839461B68984711E7F0B5632927
:100E900085B004460E4603DD90F8E855002D4DD090
:100EA000136804F213311B6810469847FF2384F837
:100EB0000C33FE23C0F3072284F80D33C3B284F849
:100EC0000E331344DB4384F80F2384F810330522D8
:100ED000002384F8116346F3072684F8126304F2B2
:100EE0001131861DB24204DC11F8015B01322B4442
:100EF000F8E7DB4300F10805B5F5007F204480F8F2
:100F000013330CDC04F543773E460434F31B9D4257
:100F100014DD16F8011B204600F07EF9F6E7094BB8
:100F200001AA019303238DF80830074B072103938F
:100F3000236820461B6898474FF0FF35284605B0C8
:100F4000F0BD00BF989B00089F9C000810B50446A8
:100F5000034B40F8043B00F0A3F8204610BD00BF4F
:100F6000E09B00080748084A08B5121A002107F05C
:100F7000FCF805F072FC07F02DF805F075FC05F0A3
:100F8000B1FC00BFF8020020C0200020022801DDD3
:100F900005F016BC0120704708B5012005F0A2FC41
:100FA00008B5FFF7F9FF000030B50D68044C026882
:100FB000B5FBF4F31A4404FB135302600B6030BD1D
:100FC00000CA9A3BD0F8C020D0F8C400101A18BF4D
:100FD0000120704701207047034610B5D0F8C420A7
:100FE000D0F8BC10501CC3F8C400885CD3F8C820EB
:100FF000D3F8C440013AB4FBF2F102FB1142C3F84A
:10100000C42010BD034610B107C983E8070070472C
:1010100070474268816812F0010F4FEA620203686C
:101020001CBF8858C35888181847C36810B50446B1
:101030000BB19B689847204610BD30B5044685B07B
:1010400000F14C05284602F045FF30B3D4F8D0201B
:10105000D4F8D4309A4216D0D4F8D430D4F8CC2076
:10106000591CC4F8D410D15CD4F8D830D4F8D400CA
:10107000013BB0FBF3F203FB12032846C4F8D43063
:1010800002F032FFDEE70023204601226946039387
:1010900004F00CFF6846FFF7C8FF05B030BD000044
:1010A00030B500250446124B85B003602A466946D8
:1010B000039504F0FBFE6846FFF7B7FF012269467F
:1010C0002046039504F0F2FE6846FFF7AEFF04F1F8
:1010D000CC0000F023F904F1BC0000F01FF9054B2F
:1010E00020462360FFF7B4F9204605B030BD00BFAD
:1010F0000C9E0008D8A2000810B50446FFF7D0FFE8
:10110000204605F022FC204610BD000010B586B038
:101110008DE80C00019B02920393064B04919DF80D
:10112000202002A9059304F0C1FE02A8FFF77DFF6D
:1011300006B010BD7C9D00087FB504461D464FF4E7
:101140001653089E04F03AFF20460F4B294640F8FC
:10115000BC3B00F0F2F806FB05F104F1CC0000F016
:10116000ECF80A4B2046029300230393009304AB50
:1011700013E90C002146FFF7C9FF2046C4F8DC50F4
:10118000C4F8E06004B070BD0C9E0008F7110008C0
:1011900070B5044686B04C3002F09CFEC0B100260B
:1011A00002AD012229462046059604F07FFE28461E
:1011B000FFF73BFF2046FFF740FF064B03960293E5
:1011C0000123009395E80C0021462046FFF79EFF7F
:1011D00006B070BD3B1000084368026810B55C1C87
:1011E0004460D154C3684168013BB1FBF3F203FB97
:1011F0001213436010BD38B500F14C050446284673
:1012000002F048FE38B1284602F04EFEC1B204F1A9
:10121000BC00FFF7E1FF38BD38B505460C46CC30C1
:10122000C9B2FFF7D9FF2846FFF7B2FF204638BD05
:101230002DE9F04107460C46B1B10D4600F1CC084E
:101240002E4616F8011B21B14046FFF7C5FF354673
:10125000F6E70A214046FFF7BFFF2C1B3846FFF791
:1012600097FF601CBDE8F0810846BDE8F0812DE9DC
:10127000F04107460D4691B1A2B10E468C1800F11F
:10128000CC08B44205D016F8011B4046FFF7A4FF76
:10129000F7E73846FFF77CFF601BBDE8F0810846A2
:1012A000BDE8F0811046BDE8F08100000EB42DE9E4
:1012B000F04185B0D0F8DC2002AFD31D23F0070346
:1012C000ADEB030D07F1240454F8048B02AE054680
:1012D0000021304606F049FF2246414630467C60F8
:1012E00007F092FFD5F8DC30024683420CD2009022
:1012F0005D220848084900F01BF900200C37BD4664
:10130000BDE8F04103B0704731462846FFF7AFFF14
:10131000F4E700BFC89D0008889D000810B504468A
:10132000006808B105F004FB204610BD0021C2682A
:1013300041608160006806F018BF38B50446084671
:101340000D4605F0E9FAE56020602046FFF7EEFF64
:10135000204638BD38B504460D4603685AB1826848
:1013600020461360012101F005FD29462046BDE815
:10137000384001F0FBBCC268F2E770B50E46044687
:10138000154601F0D1FC013606D02A462046BDE8BC
:1013900070400021FFF7DEBF70BD0022FFF7EDBFF8
:1013A00000487047389E0008014800F003B800BFAD
:1013B000389E0008036870B5DB6804469847636888
:1013C0005A6823681AB99B68BDE8704018475B6883
:1013D000156898476368281A00285A6807DC9168DE
:1013E00059601B68002BEAD050689847E7E72368EC
:1013F00010681B69BDE87040184703685B681847B0
:1014000010B5044601300DD110BD9C4209D12046D3
:10141000896802F0C3FA2046BDE81040002102F0BE
:101420007DBB0C31B1F900305A1CEED10248BDE849
:10143000104000F07DB800BFA39E0008884208B5A8
:1014400008D0431C06D0013106D0044800F070F8E3
:101450004FF0FF31084608BD0146FBE7729E0008C9
:10146000B1F900305A1C01D118467047834201D1AE
:10147000486870470C31F3E7421C10B5044607D0AA
:10148000FFF7EEFF431C044602D1024800F050F87B
:10149000204610BD839E0008B1F900305A1C01D1CE
:1014A00018467047834201D1886870470C31F3E7D2
:1014B000421C10B5044607D0FFF7EEFF431C04465C
:1014C00002D1024800F034F8204610BD549E0008B6
:1014D000EFF31080C04300F00100704708B5FFF73C
:1014E000F7FF72B6064B1A6822B980F00100054A70
:1014F000C0B210701A681A6801321A6008BD00BFC5
:10150000180C0020140C002008B5074B1A6852B1C3
:10151000FFF7DEFF1A68013A1A601B681BB9034B1C
:101520001B7803B962B608BD180C0020140C00200B
:101530000FB4012008B505F0D5F908B5FFF7CEFFC7
:10154000962005F091F8962005F08EF8F8E701F066
:1015500019BC000008B5024C23689847FCE700BF9F
:10156000F000002008B50B4800F098FE0A4B186008
:101570000A4800F093FE0A4B18600A4800F08EFEFD
:10158000094B186006F026FDBDE80840002108461A
:1015900005F06AB9009F0008A41A0020FC9E00080C
:1015A000240C0020F89E00081C0C0020FFF7D2BF7E
:1015B00010B5044600F0D2FD2146BDE810400246B9
:1015C0000148FFF7B5BF00BFC09E000805F09ABAFA
:1015D0000B4AF0B4C2F1005303F5A043B3F5007F0A
:1015E000194628BF4FF40071064F074D5B1A074C90
:1015F00007489E183A602E6023600160F0BC704777
:10160000C0200020E01700202C0C0020DC17002058
:10161000280C002000F026FFFFF7DAFF0348002126
:1016200000F0C4FE00F01CFDFEE70000F400002006
:10163000024B4FF0FF31186800F04EBE240C002022
:10164000014B186800F070BE240C002030B5027801
:101650008C78013A4368D2B213B19D78A54207D283
:10166000022A4B60416006D803B19960886030BDA2
:1016700018465B68F0E700238B6030BD4368027852
:101680005968013A022A41604FF0000205D809B1B9
:1016900088605A609A60184670475A60FBE70000FD
:1016A000034B5A684260002258608260704700BF56
:1016B000981F0020104B10B5DA688AB19A8A8A42C6
:1016C000DC680CD3C460D860C468036104B12061D5
:1016D000521A92B28282998A8A1A9A8210BD3CB9B1
:1016E00000248A1AC460D86003619A82848210BD83
:1016F000A38A1A442346E2E7B01F00202DE9F041F7
:10170000174DEB6853B10026AB8A164F013BDFF84B
:101710005880AB82AA8A0AB9EC680CB9BDE8F0819E
:10172000A36833B161685960616809B18B60626018
:10173000A66021463846FFF789FFA38AAB8263780B
:10174000042B01BFD8F80030E28A9B18A382012342
:101750006370E368EB600BB11D61E6602661D9E759
:10176000B01F0020981F00202C20002083682BB180
:1017700042685A6042685AB193607047054B5A6894
:10178000904202D142685A6070471346002AF6D14F
:10179000704700BF981F002010B5846801462CB91F
:1017A0004378012B0DD1074C03E0A4682378002B6C
:1017B000FBD00846FFF7DAFF2046BDE81040FFF7F0
:1017C00045BF10BD981F0020036910B563B1C26802
:1017D000DA60C2684AB1998A848A21449982136185
:1017E0000023C3600023036110BD9A82FAE7000062
:1017F00070B4114BDD78EFF31086EFF3108272B600
:101800009A78954211D901329A701A78541CA542DF
:1018100008BF00241C7006B962B6954207D970BC97
:1018200003EBC203586099607047002EF4D070BC7F
:101830000220FFF7BDBE00BF1C1A00200323037067
:101840000023438043608360C3607047F8B54388DA
:1018500004469BB18068036A9C4228D1E368036216
:1018600090F82430026A52BB82789A4206D0837084
:101870001F4B1B68984201D0FFF78EFF01261D4FBA
:10188000656825BB1B4843686BB1194E9A7831686F
:101890008B789A4207D9FFF7D9FE01223368284690
:1018A0005A7000F0D3FE00202070F8BD1346002BC4
:1018B000D6D0DA689442F9D1E268DA60D0E75168AC
:1018C00019B189788B4238BF0B46D268CBE72046E6
:1018D000FFF7D4FE0546002100F0F6F82846FFF792
:1018E00073FF6E7029463846FFF7B0FEC8E700BFA9
:1018F000E41F0020981F00202DE9F8434388054687
:10190000002B63D0324F81683A6891425ED1013B2F
:101910009BB243801BB100242046BDE8F8830B6ACC
:10192000984229D1C3680B6291F824300C6A5CBBE1
:101930008B706A68DFF89C80002A3BD02846FFF74E
:101940009DFE06464FF00109214600F0BDF83046E5
:10195000FFF73AFF336A3968EB60D8F80430A5F82E
:101960000290AE6035628A789B789A4214D33046F2
:1019700000F06CFED0E71346002BD5D0DA68954214
:10198000F9D1EA68DA60CFE762681AB192789342D7
:1019900038BF1346E468CAE74046FFF757FE3146B2
:1019A0004046FFF753FE3B6883F8019086F80190AC
:1019B0002046DDE7D8F8042092789A42ABD9404619
:1019C000FFF744FE01223B685A70F1E7FF24A3E7CA
:1019D000E41F0020981F0020438870B504460E467F
:1019E000134D43B92A68116A8260C16010620133E5
:1019F0006380002070BD80682A689042F7D081B172
:101A0000937882789A4202D28370FFF7C5FE6268AB
:101A10004AB129682046FFF719FE0921304600F037
:101A200037FE012070BD2B6863605A609C60F4E74C
:101A3000E41F0020F0B54FF080764FF0000E836A6F
:101A4000056B9B0802BF1E4B1B889B0805EB83029E
:101A5000540748BF043A02E94200A2F14004A2F14F
:101A60004406A2F10C0746F804EFBE42FBD1C6695A
:101A700042F8206C41631249C4620968C90017D555
:101A8000112B15D96FF00701103B5B084B43A3F1F5
:101A900038010A444FF0CC30214691420BD1083333
:101AA0001C44231F9D423CBF4FF0CC3344F8043C00
:101AB000044B2B60F0BD41F8040C41F8080DECE735
:101AC000089F0008A52E5AE2C36A19627047C36ACC
:101AD00019625A6270470000054B1B7823B94FF01A
:101AE0008052044B1A6070470122034B1A707047F2
:101AF0008014002004ED00E08114002038B51A4B5A
:101B00001A4C186801234370FFF7CAFD6578A37863
:101B10003BB917486570FFF7B1FDBDE8384000F0EC
:101B20007BBD04EBC503586802789AB9198900F0A7
:101B3000BBF9E37801359D4208BF0025EFF3108320
:101B4000EFF3108272B6A278013AA270002BDED1B8
:101B500062B6DCE7012A03D1996800F033F9E8E7BF
:101B600000F0BAFFE5E700BFE41F00201C1A0020C8
:101B7000981F0020084B4FF0FF301A68074B1A607F
:101B800000225A60072243F8042C054A136843F0E8
:101B90007F431360704700BF209F000814E000E0FF
:101BA00020ED00E07047000008B50B4B18680123DA
:101BB0004370FFF775FD00F0ADF9084A1368013373
:101BC0001360FFF79BFD00F0AFFC0548FFF756FDE3
:101BD000BDE8084000F020BDE41F00202C200020BC
:101BE000981F0020064B1A68136BD26A934203D8E1
:101BF0001A68044B9A4202D00120FFF7D9BC704703
:101C0000E41F0020A52E5AE2002ABBBF22F00042AA
:101C10000732033222F00702A8BF22F0030210B5F8
:101C2000B4BF10230C2392B1D4188C420FD80144B6
:101C30000344544241600360826021449818814209
:101C400002D300510346F9E70020186010BD0120BF
:101C500010BDEFF3108372B6026803F001030AB1FE
:101C60001168016003B962B61046704781420DD316
:101C7000436899420AD2EFF3108372B602680A6091
:101C8000016013F0010003D162B670470120704774
:101C90000020704701230370002310398908437026
:101CA00083704360038143818381C1817047000059
:101CB00070B5858904461646002D38D043891A1D13
:101CC00050F8222001330A60C2899BB29A424381B4
:101CD00004BF002343814368F3B14378022B1BD137
:101CE000FFF7CCFC05460021FFF7EEFE2389E969EA
:101CF0001A1D44F822100133E2899BB29A422381D3
:101D000008BF0023284608BF2381FFF75DFD284652
:101D100000F09CFC002070BDEFF31080EFF3108307
:101D200072B6013DA5810028F4D162B670BD4AB1FA
:101D30004268094B42B11968FFF788FC0821304618
:101D400000F0A6FC012070BD1B6843605A609860DB
:101D500001234370F2E700BFE41F0020C28980899D
:101D6000101A704708B5FFF743FDBDE80840FFF7BC
:101D7000B3BE838910B504460BB34389043350F8CE
:101D800023300B604378022B04D10021FFF730FD94
:101D9000FFF7A2FEEFF31083EFF3108272B6A28971
:101DA000013AA28103B962B66389E28901339BB229
:101DB0009A42638101D100236381042010BD18463B
:101DC00010BD0000436870B504460E46002B4BD092
:101DD0004578022D20D0032D0AD0012D61D1FFF7C7
:101DE0004DFC044632461021FFF771FE65700EE08F
:101DF0000846FFF72EFF0546002852D02046FFF781
:101E00003DFC29460446FFF75FFE01236370204630
:101E1000FFF7DAFC214622E0FFF730FC05460021FF
:101E2000FFF752FE2389E9691A1D44F82210EFF3E7
:101E30001082EFF3108172B6A1890131A18102B93C
:101E400062B6E28901339BB29A42238104BF002328
:101E50002381012328466B70FFF7B6FC2946BDE8B5
:101E600070401048FFF7F2BB8089E189884213D2A5
:101E700023891A1D44F82260EFF31082EFF31085D6
:101E800072B60130A08102B962B601339BB29942A9
:101E900008BF0023238170BD0320BDE87040FFF719
:101EA00087BB70BD981F002010B5038B4278194383
:101EB000062A04460183438B15D133EA010219D166
:101EC00021EA030121832046FFF77EFC01232046FF
:101ED0006370628B0821FFF7FAFD2146BDE81040D0
:101EE0000548FFF7B3BB052A04D111EA030201D06C
:101EF0004283E5E710BD00BF981F00200022034B7E
:101F00001A60034A1268DA80704700BFD01F0020B1
:101F1000049F000808B50E4B5A680E4B1968914291
:101F20000D4905D01A60DA880868013A02449A809F
:101F300098880A8890420AD1002205481A60FFF763
:101F40009DFBBDE8084001460148FFF77FBB08BD87
:101F5000981F0020D01F00202C20002030B5002426
:101F60000A4A136843B90360816013B19D68691A16
:101F7000996044B1206030BD9D68A942F3D31C46EE
:101F8000491B1B68EEE7106030BD00BFE01F00205A
:101F9000C0B1431C11D00C4B984211D84FF47A7148
:101FA0000A4B1B685A1E01FB0020B0FBF3F34FF6EF
:101FB000FE70834206D898B270474FF6FF707047A4
:101FC0004FF6FE70704700BF00093D00BC9E000840
:101FD00038B1830704D10378002B18BF0020704765
:101FE00000207047B0B50E4D00AF2878A8B90D4C51
:101FF000236893F8241000F06DFB2368DA78FF2A39
:1020000003D1DA6A203282F3098862680AB984E867
:102010000C0000F017FD01232B700020B0BD00BFA5
:10202000DD1F0020E41F0020014B1878704700BF1F
:10203000DD1F002010B5EFF3108434B9EFF30584F1
:102040001CB9EFF31484E40702D4034B187810BDD5
:10205000DFF808C000DF10BDDD1F002029200008C8
:1020600090B589B000AFEFF31083002B37D1EFF3B9
:102070000583002B33D1FFF7DDFF28B9194C246805
:1020800014B1646804B1A047EFF3148404F00304AE
:10209000022C18D0032C1CD0012C1ED007F12004D8
:1020A00084F30988104C2478E40710D5022484F3C3
:1020B0001488BFF34F8FBFF36F8FDFF830C000DF9E
:1020C0002437BD4690BD084C2478E407F5D403249A
:1020D000EDE7054C2478E407EFD5FF20F0E78220F8
:1020E000EEE700BFCC1F0020EA9E0008E51F0008B5
:1020F00070B50B461646024610B90024204670BD46
:1021000000680028F9D0B2F90440E51CADB2062DF4
:10211000F3D8D168C1B11269043444EA012100F056
:1021200017FB0028E9D00A4B013853F82040094A30
:10213000E36A5A63084B1B6843B19B6833B131466D
:10214000E0789847E063D9E70A46E5E7E663D5E734
:10215000001A0020F9220008CC1F002008B500F06A
:10216000B1FA18B1024B013853F8200008BD00BF86
:10217000001A002010B5FFF72BFF044670B1084B82
:102180001B681BB1DB680BB1C06B9847E07800F0AF
:1021900035FBFF280CBF8120002010BD802010BD22
:1021A000CC1F002008B528B1FFF7F2FE00F090FC2C
:1021B000402008BD08BD000010B5EFF3108434B90D
:1021C000EFF305841CB9DFF80CC000DF10BD8220DE
:1021D00010BD0000A5210008830705D138B143696F
:1021E00001691B681846704700231946FAE7034641
:1021F000FBE7000010B504460846DFF80CC000DF1E
:1022000084E80300204610BDD921000810B548B16C
:10221000046824B1237823B92046FFF70FFB20463A
:1022200010BD002010BD70B510F0030405460E4629
:1022300011D180B10378032B0DD10846FFF7A8FE1A
:1022400001462846FFF7C8FB012806D1002E14BF1F
:10225000C120812070BD802070BD204670BD8207E6
:1022600008B50AD148B10378032B06D1FFF744FB28
:10227000FF280CBF8120002008BD802008BD10B5BC
:1022800010F0030407D130B10378032B03D1FFF71B
:10229000DDFA204610BD802010BD000070B5054657
:1022A000EFF3108494B9EFF305867EB9EFF314844D
:1022B000E40706D4064C24781CB9BDE87040FFF74B
:1022C000A5BF2846DFF80CC000DF70BD002070BD40
:1022D000DD1F00200D22000810B5EFF3108434B983
:1022E000EFF305841CB9DFF80CC000DF10BD8220BD
:1022F00010BD000027220008084808B54FF0FF3144
:102300000068FFF7E9FFDFF818C000DF0446FFF7B9
:102310005DF92046DFF80CC000DFFEE7D81F002083
:102320005D2100087521000810B5EFF3108434B961
:10233000EFF305841CB9DFF80CC000DF10BD82206C
:1023400010BD00005F2200082DE9F04180460F46D5
:102350001646EFF3108404BBEFF30583D3B9EFF314
:102360001483DB0706D40E4B1B781BB9BDE8F04184
:10237000FFF7BEBE0B4D4FF0FF312868FFF7ACFFF3
:10238000404639463246DFF820C000DF0446286860
:10239000FFF7CAFF2046BDE8F0810024FAE700BF3E
:1023A000DD1F0020D81F0020F12000080022FFF7C9
:1023B000CBBF000010B5EFF3108434B9EFF3058400
:1023C0001CB9DFF80CC000DF10BD822010BD00007A
:1023D0007F22000810B5044660B1016851B1406821
:1023E00048B1037833B90431890089B2FFF752FC50
:1023F000606810BD002010BD38B5114C23780BB9B2
:1024000000F0A6FAFF220F4B25781B689A708DB951
:1024100029460D48FFF7DEFF0C4B2A461860294677
:102420000B48FFF765FE0B4B18600B48FFF736FFB4
:102430000A4B1860012300202370094B187038BD27
:10244000DC1F0020E41F0020F09E0008A01A0020DE
:102450000C9F0008941F0020249F0008D81F002014
:10246000DD1F002010B5EFF3108474B9EFF305847D
:102470005CB9EFF31484E40703D4BDE81040FFF720
:10248000BBBFDFF80CC000DF10BD822010BD000014
:10249000F92300082DE9FF410C46804618B3037864
:1024A000012B25D10846FFF773FD02A902464046DD
:1024B000FFF7FEFB012811D10020002C0246034645
:1024C00018BF4020029904460D4616461F46204676
:1024D000294632463B4604B0BDE8F0810020024662
:1024E00003461020EEE78024054606460746EEE741
:1024F000002580242E462F46E9E770B50E46144687
:10250000054660B15AB90378012B08D1FFF726FCC4
:1025100038B128463146FFF725FC204670BD8020A3
:1025200070BD812070BD0000F8B5114E34682CB12B
:10253000A368104F013BA360A26802B1F8BD2568F3
:10254000214638683560FFF7D8FF10B10420FFF747
:102550002FF86379012B07D1E1682046FFF7FEFCD5
:10256000002DEBD02C46E7E701232371F8E700BFED
:10257000E01F0020A01A00207FB50446164608463A
:1025800001B122B180232360204604B070BD0B78D6
:10259000012BF7D102A9FFF7ECFB042808BF102399
:1025A00001AD14BF0196019395E8070084E8070088
:1025B000EAE7000038B504461546EFF3108010B97D
:1025C000EFF3058028B12A462046FFF7D5FF2046C5
:1025D00038BD08461146DFF80CC000DF84E807006C
:1025E000F5E70000952400087FB50A4C4FF0FF3254
:1025F000216803A8FFF7DEFF039B102BF6D1049997
:1026000001A8FFF7F7FD019B002BEFD00298984738
:10261000ECE700BFA01A0020054B5860022343706E
:10262000044B1B681BB11B690BB1C06B184770478B
:10263000E41F0020CC1F002008B50348FFF71EF858
:10264000BDE80840FFF7E8BF981F002070B50446BA
:1026500018B9BDE87040FFF7EFBF0B4EA2783068A5
:10266000012583789A4208D9FFF71AF83368204683
:102670005D70BDE87040FFF7CFBF65702146BDE8D3
:1026800070400248FEF7E2BFE41F0020981F0020C0
:1026900038B50D46014680B14FF6FF739842074C9E
:1026A00002D02068FFF706F8236805485D70FEF742
:1026B000E5FFBDE83840FFF7AFBF38BDE41F00209D
:1026C000981F0020024B186800B1C078704700BF07
:1026D000E41F002010B5A8B9194B1B68997083F846
:1026E0002410184843689B788B4201D8002010BD05
:1026F000134C2168FEF7AAFF012223685A70FFF7E6
:102700009BFFF3E7104B1B88984217D80F4B0138FB
:1027100053F8204094B10A4BA1701B6884F8241030
:102720009C42DED02046FFF737F86378012BDDD1DD
:102730000448FEF7A3FFFFF789FFD7E7FF2010BD8E
:10274000E41F0020981F0020EC9E0008001A0020C3
:102750002DE9F0470D4611F0FF0F8046234816463D
:102760009A4608BF0135FFF774FA044620B94FF0C6
:1027700000094846BDE8F08700211D4B06631B8811
:10278000280A1C4EA0628B4201F10109EFD006EB32
:10279000890252F8042C0F464946002AF3D101233E
:1027A000EDB284F80390C4F81CA0C4F838A02270DD
:1027B0006370A57084F824506260A260E2602261B8
:1027C0002262A282E2822283628384F8252018B9E1
:1027D0000948FFF73EFA206320464146FFF72AF9F1
:1027E000204646F82740FFF731FFC2E7C81D00200A
:1027F000EC9E0008001A0020F01700202DE9F84F89
:102800004D4D18B12B68DB78984241D100232C68DC
:102810000127637004F0A9F9E062FFF7E3F92B6880
:10282000DFF828811C6AA4B92A684449D37844484F
:10283000013B41F82340116BFFF718FA2968414822
:102840000C63FFF713FA2C60FFF7F6FE2046BDE895
:10285000F88F6368B3B12046FEF710FF06460021EB
:10286000FFF732F93046FEF7AFFF7770314640464A
:10287000FEF7ECFEE368326A6780A660E2603462CD
:102880001C46D0E7E2686380A360E3601446CAE7B1
:102890002D4B1B8898424DD8284B471E53F8276074
:1028A0009946002E46D04FF0010A3046FEF75EFFF3
:1028B0003046FEF789FFDFF894B0346AB4B9316B63
:1028C0001F4849F82740FFF7D1F9314634631D48C6
:1028D000FFF7CCF91D48296843689A788B789A42AB
:1028E000B4D901234B70FEF7B1FEADE76368DBB1ED
:1028F0002046FEF7C3FE80460021FFF7E5F840467C
:10290000FEF762FF88F801A041465846FEF79EFE9A
:10291000E368D8F82020A4F802A0C4F80880E26098
:10292000C8F820401C46C9E7E2686380A360E36002
:102930001446C3E7FF2489E7E41F0020001A0020A3
:10294000F0170020C81D0020EC9E0008981F0020F2
:1029500038B52C4B2C491A880023184693424DD386
:102960002A4B402219882A48FFF74EF9294B2A485A
:102970001A882A4B42F000421968FFF745F9284BA4
:1029800008221988274B284C1868FFF73DF9FF23C8
:102990000025E370012320486370A5622570A570AF
:1029A00084F824506560A560E56025612562A582F4
:1029B000E5822583658384F82550FFF74AF91B4992
:1029C00020632046FFF736F80422194B20461A7080
:1029D0005D60184B1A70DD601D619D82164B1C6096
:1029E00002236370FFF718FE144A154B12781D700E
:1029F0005D70DA70BDE83840FFF780BA41F8230017
:102A00000133ABE7EC9E0008001A0020B89E0008D6
:102A1000C81D0020089F0008F0170020B49E000881
:102A2000BA9E0008200C0020EC1F0020AD15000805
:102A3000981F0020B01F0020E41F0020E99E00081E
:102A40001C1A002008B51E4B1A6842F47F021A6057
:102A50001B681B0203F07F43DB43B3FA83F3194A7D
:102A6000DBB21268C3F10803C2F30222934298BF9B
:102A7000531C6FF08072144802FA03F3016803F0EC
:102A80007F4321F07F4213430360FFF773F80F4B3E
:102A90000028186012DBFF22012100F1604000F5E0
:102AA000644002701A6853099B0003F1604302F00E
:102AB0001F0203F5614301FA02F21A6008BD00BF6C
:102AC00020ED00E00CED00E01CED00E0C81F002050
:102AD0000321FFF7DDBD0000426810B57AB1FEF7B3
:102AE000CDFD0446FEF770FE012120466170FEF721
:102AF000EBFF2146BDE810400348FEF7A7BD428822
:102B00000132428010BD00BF981F0020044B054ACF
:102B100013605863DA6842F00202DA60704700BF5F
:102B20000008004030200020054B186830B9012211
:102B30001A60044A044B1A6000F01EBA704700BFC6
:102B4000A4140020000800403020002010B50B4ADB
:102B50000B4C14600B4A12680AB9FFF7E5FF00221C
:102B6000094B1A70094A606A12681B78012B0ABF68
:102B7000074B00EB0240186810BD00BF302000205A
:102B800000080040A41400206C20002094140020B1
:102B9000A014002010B50446FFF7D8FF144B201AEC
:102BA0005B6A00289CB203DCBDE81040FEF7FCBB6A
:102BB000104A01141160104980B208804FF6FF706E
:102BC0000A889BB292B2C31A9A4207DC0888204452
:102BD00080B2FFF79BFF00230B8010BDFFF796FF2D
:102BE000088880B201300444A4B20C8010BD00BF3C
:102BF00000080040981400209C140020034B044A55
:102C00001360DA6822F00202DA60704700080040C0
:102C100030200020044B054A13601A69920744BF14
:102C20006FF002021A617047000800403020002057
:102C300030B50D0E91FAA1F4B4FA84F491FAA1F131
:102C40000F23B1FA81F1A40003FA04F44359890077
:102C500023EA040302FA01F11943415130BD000097
:102C60007FB5042842D8DFE800F003111D293500A4
:102C7000214B22489A6942F004029A619B6903F051
:102C800004030193019B07B05DF804FB1A4B1C4839
:102C90009A6942F008029A619B6903F00803029363
:102CA000029BF0E7144B17489A6942F010029A61B0
:102CB0009B6903F010030393039BE4E70E4B124858
:102CC0009A6942F020029A619B6903F02003049301
:102CD000049BD8E7084B0D489A6942F040029A617C
:102CE0009B6903F040030593059BCCE70848FEF77A
:102CF0001FFC0020C7E700BF001002400008014091
:102D0000000C014000100140001401400018014077
:102D1000289F000810B50021044600F03FFE012066
:102D200004F00F04A04010BD70B504464B1C0E46C5
:102D3000218218D0C1F30310FFF792FF05463046F9
:102D4000FFF7E8FF238A084A03F00F0352F8233005
:102D50006561A36105F10803636005F11003143593
:102D60002060A360E56070BD789F0008B0F9100096
:102D700000F0D4BE21B9082281694069FFF758BF2D
:102D80000122F9E708B500F057F90121002002F00F
:102D900091FFBDE8084000F05BB90000394B2DE918
:102DA000F0415A69384CD20723602CD59868374FC8
:102DB00099683840B84208BF0127354E9A6801EA41
:102DC000060108BF9F60B14208BF4FF48076314DC5
:102DD00008BF2C4B02EA050208BF9E60AA4202BF50
:102DE0004FF48035274B9D60284B984205D0284BE7
:102DF000994202D0274B9A4205D1274B274A1B689C
:102E00000121106898472368DA685B69970707D043
:102E10009E0705D5204B214A1B6800211068984762
:102E2000236899695A698D075B6909D5900507D5AB
:102E3000190405D5184B194A1B68052110689847D5
:102E400022689669556916F0040605F48065526992
:102E500008D03DB1120405D50F4B104A1B6807215D
:102E60001068984723685B6956B14DB11B0407D5BC
:102E7000BDE8F041084B094A1B6802211068184759
:102E8000BDE8F08100640040A814002003000004A5
:102E90000003000800000310EC140020E8140020D8
:102EA000FFF77CBFFFF77ABFF8B52B4B2B4C5E6A60
:102EB0001A692360D20712D5DA68D7070FD56FF0E9
:102EC00001021A61264B1A6801321A601A68B3B2FD
:102ED00003EB0243234A13600122234B1A701E4B5B
:102EE0001A6995070FD5DA6890070CD56FF00202C2
:102EF0001E4D1A612B889BB2F3B1288880B2FFF770
:102F000005FE00232B8023681A69510713D5DA6860
:102F1000520710D56FF00402154E1A615D6A3368CE
:102F2000EB1AB3F57A7F06D301F090FA236805F522
:102F30007A729A633560F8BD0E4F3B684BB14FF61D
:102F4000FF70B6B2FFF7E2FD2E803B68013B3B60AD
:102F5000D9E7FEF729FAD6E7000800403020002024
:102F600094140020A01400206C2000209C14002049
:102F7000F014002098140020274B37B5DA69274C4D
:102F800042F00402DA61DA69002502F004020192DB
:102F9000019A1A6942F004021A611A6922F00402C5
:102FA0001A6100F0D3FF1E4B1E4A23604FF6FF73D9
:102FB000E3601D4B20461B682561B3FBF2F3013B28
:102FC0006360A56001F048F92946204601F028FA1F
:102FD0000421204601F024FA2268144B516A1E2075
:102FE00019601B68124903F57A73936301F05CF86A
:102FF0004FF080420F4B20461A602368DA6842F097
:103000000102DA60DA6842F00402DA6001F0E1F805
:10301000284603B030BD00BF001002403020002021
:103020000008004040420F0008010020F01400207A
:10303000A92E000800E100E0034B044A1360DA689F
:1030400022F00402DA6070470008004030200020BF
:10305000034B044A1360DA6842F00402DA607047F6
:10306000000800403020002010B5054B5C68204669
:1030700002F0A0F82046BDE8104002F01FBC00BFDF
:10308000F414002010B5054B1C68204602F092F89D
:103090002046BDE8104002F011BC00BFF41400202F
:1030A000F8B50F46064690F9644090F96550204601
:1030B00000F0FAFF3946284600F0F6FF96F86D302A
:1030C000002B0CBF02230123002CA8BF04F1604297
:1030D0004FEA0313B9BF154AD9B202F56142D9B21A
:1030E000BABF04F00F00115482F80013002DAFBFD7
:1030F00005F160420D4A05F00F01DBB2A5BFDBB25E
:1031000002F56142535482F8003301236109084AF1
:1031100004F01F0403FA04F442F82140690905F0A1
:103120001F0503FA05F542F82150F8BD14ED00E043
:1031300000E100E010B590F9654090F9640002F0FC
:1031400093FC2046BDE8104002F08EBC90F8583049
:10315000011D3BB1012B044818BF0020034A42F86F
:10316000231070470248F9E769300008F414002082
:1031700085300008144BC16D1B680268B3FBF1F188
:1031800014234B4342609169890701D5013BFAD171
:103190000E4B9A420AD103F5DE331A6942F400124B
:1031A0001A611A6922F400121A617047084B9A4298
:1031B000FBD103F5DC331A6942F480021A611A6903
:1031C00022F48002F0E700BF080100200054004014
:1031D0000058004038B504460E4BE26D1B680D46A2
:1031E000B3FBF2F2142353436268043091698907F8
:1031F00001D5013BFAD100234FF48042A560E36082
:103200006261A361236263622361E36101F02AFDCD
:10321000E56538BD08010020F7B50E4604463D4976
:1032200030461546FEF728F93B4907462846FEF783
:1032300023F9A4F860600146A4F862503846FEF70E
:10324000FDF8364B2060984225D1002384F8583091
:1032500003F1804303F50433DA692E4942F4001286
:10326000DA61DB69304603F400130093009BFEF73C
:10327000C7F829492846FEF7C3F80321304600F075
:103280004DFC0321284600F049FC1F2384F86430DC
:10329000202384F865302268214B9A4222D10123F1
:1032A00084F858301F4B1B49DA69304642F48002DB
:1032B000DA61DB6903F480030193019BFEF7A0F858
:1032C00015492846FEF79CF80321304600F026FCFD
:1032D0000321284600F022FC212384F864302223B5
:1032E00084F86530E36D0BB90F4BE3652046FFF7BB
:1032F00041FFE16D2046FFF76DFF002384F86E303B
:1033000084F86D3084F86F3084F86C300423A36641
:1033100003B0F0BD28A00008F89F0008005400404A
:103320000058004000100240A08601002DE9F34142
:1033300090460446089A061D1D468FB213B1B8F197
:10334000000F0DD10A2301223946304601F0ECFD71
:1033500000284FD06FF00105284602B0BDE8F0818B
:10336000836E042B01D0082B38D1AAB30423A366A3
:103370000023204684F86C30FFF7E8FE0146204623
:10338000FFF78EFEA36E424600933946ABB230463D
:1033900001F040FD0028DDD1174B1E68E36DB6FB40
:1033A000F3F31E2605FB06665E4394F86C3013F0BB
:1033B0001E0F01D1013E19D12046FFF7BBFE1EB101
:1033C00094F86C30082BC7D0B4F96220B4F96010BF
:1033D0002046FFF721FFBDE70123C8E7013B012B92
:1033E000C6D80AB10823C2E70223C0E7012003F0D0
:1033F00023F9DAE70546AFE7080100202DE9F3419C
:1034000090460446089A061D1D468FB213B1B8F1C6
:10341000000F0DD10A2301223946304601F084FD08
:1034200000284FD06FF00105284602B0BDE8F081BA
:10343000836E042B01D0082B38D1AAB30423A366D2
:103440000023204684F86C30FFF780FE01462046BA
:10345000FFF726FEA36E424600933946ABB23046D4
:1034600001F06EFC0028DDD1174B1E68E36DB6FB42
:10347000F3F31E2605FB06665E4394F86C3013F0EA
:103480001E0F01D1013E19D12046FFF753FE1EB198
:1034900094F86C30082BC7D0B4F96220B4F96010EE
:1034A0002046FFF7B9FEBDE70123C8E7013B012B2A
:1034B000C6D80AB10823C2E70223C0E7012003F0FF
:1034C000BBF8DAE70546AFE708010020836F07B5D0
:1034D000ABB1D0F8883093B190F870206AB108226F
:1034E0004266426EB0F86C1000929BB2D0F8842015
:1034F00001F090FC03B05DF804FB0222F0E7082322
:1035000080F86830F6E7082380F86830704738B5EF
:103510000446051D0261284601F0A4FB2046FFF782
:1035200015FE01462046FFF7BBFD2846BDE83840A2
:1035300001F0DEBC70B590F869500446061F05B175
:10354000C568B4F95E20B4F95C103046FFF764FE3C
:1035500045B1012384F8693000232A4619463046D4
:10356000FFF7D5FF022384F8683070BD19B9012335
:1035700080F86A307047012908BF80F86B107047E7
:10358000002380F86A307047002380F86B30704762
:1035900001F0AEBC10B5044650F80429536823F47A
:1035A000E0635360FFF7C6FD022384F8683010BD66
:1035B00030B50C460268254B89B005461A600021DB
:1035C000204604F0F5F920BB4FF07E51204604F070
:1035D0000DFA08B14FF07E54E86803F0F3FF21467E
:1035E00004F048F804F00CFA60230193AB682861FA
:1035F000B0FBF3F000230393059306930493079322
:103600002B7D0290013B032B15D8DFE803F01A0451
:1036100016180024E0E70424224601A90B4800F014
:103620007BFE10B10A48FDF783FF6B7D21460748FA
:103630004BB100F032FF09B030BD0824ECE70C2498
:10364000EAE70024E8E700F0D5FEF4E708150020DB
:103650005E9F000838B5C46894B1006903F0B2FFFA
:103660000546204603F0AEFF0146284604F0B6F8B2
:103670004FF07E51044604F0B9F918B9204638BD20
:103680000024FBE74FF07E54F8E7000000232DE90B
:10369000F047D0F800804C4C86B0009305460E46AB
:1036A000C4F80080FFF7D6FF41F21113D8F82020AC
:1036B00007461A420BD140F24443D8F820201A4260
:1036C00002BFD8F8003023F00103C8F80030694683
:1036D00001A801F079FA3D480023804629685FFA85
:1036E00083F950F8392001338A42F8D111B93848AA
:1036F000FDF71EFF08EBC90898F8043053BB01F032
:1037000033FA0090049801230099AB60314B30BB31
:10371000B1FBF3F3013B63602E4B4FEA4108B1FB71
:10372000F3FE002106F1FF3CB8FBF3F88A4663463E
:103730004FF6FE796268C4F80CC0B3F5803F12D230
:10374000B2F5803F0FD2BAF1000F00D06260F1B144
:10375000E3601CE001F020FA00900598D3E74A00EE
:10376000B2FBF3F3D6E7AB685B00AB6030BB0EFB9C
:1037700003F2BCFBF3F34B4502F1FF3221D8B2F563
:10378000803F1ED314486260E360FDF7D1FE002342
:103790000D482361A36000F079FD10B10E48FDF7DC
:1037A000C7FEEE6039462846FFF702FF226813681D
:1037B00043F00103136006B0BDE8F08708FB03F295
:1037C000D7E701218A46B8E708150020B89F00080E
:1037D000499F000840420F005E9F000830B50D462B
:1037E000044685B02C492846FDF746FE2A4920604C
:1037F0002846FDF75DFEC0F304332375274A23688E
:10380000C0F34040934260751AD1254B9A6942F447
:1038100000629A619B6903F400630093009B284651
:103820001D49FDF7EDFD0023E36023610123A58021
:10383000A36044F620612046FFF728FF05B030BDA5
:10384000B3F1804F0BD103F50433DA6942F0010282
:10385000DA61DB6903F001030193019BDFE7114AA1
:1038600093420AD10E4BDA6942F00202DA61DB6957
:1038700003F002030293029BD1E70B4A9342CED19D
:10388000074BDA6942F00402DA61DB6903F00403F2
:103890000393039BC3E700BF58A00008002C01401E
:1038A00000100240000400400008004030B50D0E3A
:1038B00091FAA1F4B4FA84F491FAA1F10F23B1FAC8
:1038C00081F1A40003FA04F44359890023EA0403B4
:1038D00002FA01F11943415130BD30B50D0E91FA94
:1038E000A1F4B4FA84F491FAA1F10423B1FA81F1BC
:1038F000A40003FA04F44359890023EA040302FAFA
:1039000001F11943415130BD10B591FAA1F2B2FA5B
:1039100082F291FAA1F394000F22B3FA83F3090E15
:103920004058A24010409B00D84010BD70B51646CC
:1039300005460C46FFF7E8FF012E0AD0022E1CD0E8
:10394000082829D121462846BDE870400422FFF707
:10395000ADBF042804D1082221462846FFF7A6FF60
:10396000EB68240A94FAA4F223EA0404B2FA82F27D
:10397000012393401C43EC6070BD042804D108224D
:1039800021462846FFF792FFEB68240A23EA040346
:1039900094FAA4F4EB6070BD70BD00002DE9F7430C
:1039A0005B4B86B206F00F028046C0F303100F4651
:1039B00001F0070953F82240FFF752F9210E05469E
:1039C00094FAA4F3B3FA83F394FAA4F24FF0030E3B
:1039D000B2FA82F09B006A580EFA03F322EA03035C
:1039E00082000EFA02F21343B9F1010F6B502AD094
:1039F0007FD3B9F1020F28D000222146284609F1D1
:103A0000FF39FFF753FFB9F1010F07D817F008028C
:103A100018BF042221462846FFF75FFFC7F30112B3
:103A200021462846FFF782FFA6F10D03012B62D83D
:103A3000384A536823F0E06343F080635360133ED9
:103A4000012E62D85AE04A46D7E7334BC7F3032228
:103A5000996941F0010199619B6903F001030193A8
:103A6000019B72B1531E092B0BD8DFE803F0050C44
:103A700011161B222930353B264A536843F00103B7
:103A800053600922B9E7234A536843F00203F7E77A
:103A9000204A536843F00403F2E71E4A536843F098
:103AA0000803EDE71B4A536823F0300343F010038B
:103AB000E6E7184A536823F0C00343F04003DFE70A
:103AC000144A536823F4406343F40063D8E7114A6F
:103AD000536843F44073D3E70E494B6843F44063A3
:103AE0004B608AE70B4A536823F4C04343F4804396
:103AF000C6E7082281E7B8F10F0FA0D1054A536845
:103B000023F0E06343F00073536003B0BDE8F0833B
:103B1000789F00080000014000100240194B70B56A
:103B200000F00F02C0F3031053F822400E46FFF7D7
:103B300097F821460546FFF7E7FE20F00800012828
:103B400007D1F31E022B0DD8042221462846FFF789
:103B5000C4FE032E0BD1012221462846BDE8704049
:103B6000FFF7E4BE002221462846FFF7B6FE012EED
:103B7000F1D0052E01D0022E01D10222ECE7002265
:103B8000EAE700BF789F00080122430900F01F0008
:103B900002FA00F0044A203342F82300BFF34F8FAB
:103BA000BFF36F8F704700BF00E100E0426810B5BF
:103BB0001549046892018B188C5082685A60C2685B
:103BC0009A600269DA6042691A61026A9A610022A7
:103BD000DA849A84DA859A85B0F91A2001320AD1FA
:103BE00008225A61184601F0F0FF58B1BDE81040B4
:103BF0000648FDF79DBCB0F9182001320CBF042225
:103C00000C22EEE710BD00BF58150020E09F000811
:103C1000F7B5194E074656F8200000282AD0174C51
:103C2000BD0163591A6852060AD5DB68590607D5E3
:103C3000134B01211B6898476FF0400263591A60CB
:103C400063591A6892060CD5DB68980609D50C4BA7
:103C500000211B6856F8270098476FF0200263592F
:103C60001A6063591A68110704D55A69D20744BF0C
:103C70005B68019303B0F0BD481500205815002083
:103C8000441500200020FFF7C3BF0120FFF7C0BF8D
:103C90000220FFF7BDBF0000F0B50E4685B0044618
:103CA000424930461546FDF7E7FB4149074628469D
:103CB000FDF7E2FB01463846FDF7C0FB3D4B2060B7
:103CC000984243D103F55843DA6842F48042DA60FF
:103CD000DA6822F48042DA609A6942F480429A619A
:103CE0009B6903F480430193019B002363602F4988
:103CF0003046FDF785FB2E492846FDF781FB721CF7
:103D000003D001213046FFF709FF6B1C03D00121CE
:103D10002846FFF703FF4FF41653A36000232683C2
:103D2000E36023616361236265832046FFF73EFF02
:103D30002268214B9A4207D10122204B21461A606A
:103D40001F484C2204F0ECF905B0F0BD1A4B984224
:103D500014D103F5E6331A6942F400321A611A6984
:103D600022F400321A61DA6942F40032DA61DB6966
:103D700003F400330293029B0123B7E7114B9842EF
:103D8000B5D103F5E4331A6942F480221A611A6945
:103D900022F480221A61DA6942F48022DA61DB6956
:103DA00003F480230393039B02239FE7CCA1000825
:103DB00084A1000800380140004400405415002050
:103DC00070200020004800408160FFF7EFBE000037
:103DD000034B19604168034B43F82120704700BF33
:103DE000441500204815002038B509C80D46214962
:103DF000884217D12524204920489B011AB3C25874
:103E0000D368EDB943F02003D360204600F04CF9AD
:103E10000123620904F0070403FA04F4184B43F881
:103E2000224038BD1749884202D117492624E3E7CA
:103E30001649884213BF0021154927240C46DBE7A9
:103E400043F04003E0E7C358DA6835B922F02002B6
:103E5000DA60DB681A0606D538BD22F04002DA6067
:103E6000DB689B0604D42046BDE83840FFF78CBED3
:103E700038BD00BF00380140853C000858150020BF
:103E800000E100E0004400408B3C00080048004096
:103E9000913C00084368034A9B01D3581868C0F35B
:103EA000401070475815002010B504464168204660
:103EB000FFF7F0FF0028FAD0054AE0688B01D358DD
:103EC00010B95868C0B210BD5868C0F3080010BDE2
:103ED000581500204368034A9B01D3581868C0F363
:103EE000C01070475815002038B50546446828466C
:103EF000FFF7F0FF0028FAD0054AE868A301D3587D
:103F000010B9C9B2596038BDC1F30801FAE700BF62
:103F10005815002008B500F019F8BDE8084000F079
:103F200083BA7FB50F23022101934FF480620023EF
:103F300001A8029103930492059300F061FDB0FA89
:103F400080F0400907B05DF804FB0000114A124BF5
:103F5000516801F00C01042901D008290AD00F4949
:103F6000196052680E49C2F30312895C1A68CA408C
:103F70001A60704751685068C1F38341C00301F172
:103F8000020102D407484143EAE750688003F9D4AC
:103F90000248F8E7001002400801002000127A00F1
:103FA00014A2000800093D00012310B58AB0009357
:103FB000A0B94FF480330193022307934FF4803369
:103FC000002408934FF4E01368460294099300F02C
:103FD00075FA30B9FFF7A5FF0AB010BD4FF4A02362
:103FE000E9E72046F8E7032310B58AB000930123E0
:103FF0000493102305930223002407934FF46013C6
:10400000684601940894099300F058FA18B9FFF72C
:1040100088FF0AB010BD2046FBE708B50120FFF776
:10402000C3FF30B9FFF7C0FF18B9FFF7DCFF00B9D5
:10403000FEE708BD10B5174C236843F00103236069
:104040006268154B1340636023684FF0006223F0F1
:10405000847323F480332360236823F48023236054
:10406000636823F4FE0363604FF41F03A3600B4BEC
:104070009A600B4B0B4A1A6000F0D6F9FFF7CDFFA0
:10408000236943F004032361236923F004032361BC
:1040900010BD00BF001002400000FFF800ED00E07E
:1040A0000801002000127A0030B50C4CA268A46808
:1040B0001346B4F1006F0CD1131F094C094A53F891
:1040C000045F42F8045FA242F9D14FF00053034A63
:1040D0009360103043F8201030BD00BF00ED00E0C9
:1040E000E8000020FCFFFF1F036A70B523F0010306
:1040F0000362036A446882690D6822F073022A43EE
:104100008D6823F002032B430A4DA8420BD1CD68E2
:1041100023F008032B438E694D6924F44074354322
:1041200023F004032C43446082614A6842630362C3
:1041300070BD00BF002C0140036A70B523F480738A
:104140000362036A4468C2690D6822F073022A435D
:104150008D6823F4007343EA05230B4DA8420DD16B
:10416000CD6823F4006343EA05238E694D6924F486
:104170004054354323F4806344EA05144460C2612B
:104180004A68C263036270BD002C0140036A30B507
:1041900023F480530362036A4468C2690D6822F401
:1041A000E64242EA05228D6823F4005343EA0533D0
:1041B000064DA84202BF4D6924F4804444EA8514A8
:1041C0004460C2614A680264036230BD002C014051
:1041D00070470223026880F83930136843F0010306
:1041E0001360012380F839300020704770470000C9
:1041F000184A036890420AD0B0F1804F07D0A2F568
:104200009432904203D002F58062904215D14A6800
:1042100023F0700313430F4A90420AD0B0F1804F4D
:1042200007D0A2F59432904203D002F5806290420A
:1042300003D1CA6823F44073134303608B68C362DD
:104240000B688362034B984204BF0B69036301232D
:1042500043617047002C014010B50446A0B190F8AE
:10426000393003F0FF021BB980F83820FFF7B0FFA8
:104270000223206884F83930211DFFF7B9FF01239C
:10428000002084F8393010BD012010BD10B504465F
:10429000A0B190F8393003F0FF021BB980F8382044
:1042A000FFF7A4FF0223206884F83930211DFFF7AF
:1042B0009FFF0123002084F8393010BD012010BD7C
:1042C000036A70B523F010030362036A44688269CD
:1042D0000D6822F4E64242EA05228D6823F02003AD
:1042E00043EA05130B4DA8420DD1CD6823F080039E
:1042F00043EA05138E694D6924F44064354323F085
:10430000400344EA8504446082614A688263036230
:1043100070BD00BF002C014038B590F8383004461D
:10432000012B4FF0020025D0012384F8390084F8D6
:1043300038300C2A18D8DFE802F0071717171E17B5
:1043400017172F17171740002068FFF7CDFE2368B7
:1043500009699A6942F008029A619A6922F0040296
:104360009A619A690A439A610123002084F83930DE
:1043700084F8380038BD2068FFF7A2FF2368096978
:104380009A6942F400629A619A6922F480629A61A1
:104390009A6942EA0122E6E72068FFF7CDFE23682A
:1043A0000969DA6942F00802DA61DA6922F0040286
:1043B000DA61DA690A43DA61D6E72068FFF7E6FED8
:1043C00023680969DA6942F40062DA61DA6922F481
:1043D0008062DA61DA6942EA0122ECE710B5012471
:1043E000036A8C4023EA04030362036A8A401A4387
:1043F000026210BD10B5044601220068FFF7EEFF0F
:104400002368064A0020934202BF5A6C42F40042DD
:104410005A641A6842F001021A6010BD002C014073
:10442000FFF7E8BF70470000074A08B5136803208C
:1044300043F01003136001F005FB0F20FEF79CFD15
:10444000FFF7F0FF002008BD00200240024A136879
:1044500001331360704700BF18160020014B186825
:10446000704700BF1816002013B50190FFF7F6FF44
:104470000446FFF7F3FF019B001B9842F9D302B0FB
:1044800010BD10B50424036A8C4023EA04030362C0
:10449000036A8A401A43026210BD10B50446042222
:1044A0000068FFF7EEFF236800205A6C42F40042D8
:1044B0005A641A6842F001021A6010BD03682DE9BF
:1044C000F743DE07054634D42B689C0700F1A7802C
:1044D0002B681A0723D5AA69BE4C0123BE49002ABE
:1044E00000F0158193FAA3F2B2FA82F241F8223079
:1044F000FFF7B4FF0226074696FAA6F396FAA6F34C
:10450000626A96FAA6F3B3FA83F303F01F0322FA62
:1045100003F3DB0740F1F4800120FFF7A5FF2B68D0
:10452000590700F11481EA69002A40F093810020C4
:1045300020E0A84C636803F00C03042B07D06368E9
:1045400003F00C03082B18D16368D80315D54FF47A
:10455000003393FAA3F2226893FAA3F3B3FA83F336
:1045600003F01F0322FA03F3D907ADD56B68002BC4
:10457000AAD1012003B0BDE8F0836B68B3F5803F9A
:104580001CD1236843F480332360FFF767FF4FF4A7
:104590000036074696FAA6F3226896FAA6F3B3FA0F
:1045A00083F303F01F0322FA03F3DA078CD4FFF737
:1045B00055FFC01B6428EDD90320DBE703BB23684C
:1045C0004FF4003623F480332360236823F48023E0
:1045D0002360FFF743FF074696FAA6F3226896FA90
:1045E000A6F3B3FA83F303F01F0322FA03F3DB0706
:1045F0007FF56AAFFFF732FFC01B6428ECD9DBE719
:10460000B3F5A02F236803D143F480232360B8E7D8
:1046100023F480332360236823F48023B4E76D4CB4
:10462000636813F00C0F07D0636803F00C03082BCA
:1046300020D16368DF031DD4022393FAA3F222681A
:1046400093FAA3F3B3FA83F303F01F0322FA03F3FD
:10465000DE0702D52B69012B8BD12168F82393FA51
:10466000A3F3B3FA83F26B69934021F0F80213438A
:1046700023602DE72A69012302B393FAA3F2B2FA69
:1046800082F2920002F1844202F584021360FFF785
:10469000E5FE0226074696FAA6F3226896FAA6F3E6
:1046A000B3FA83F303F01F0322FA03F3D807D4D439
:1046B000FFF7D4FEC01B0228EDD97DE793FAA3F3E0
:1046C000B3FA83F39B0003F1844303F584031A6078
:1046D000FFF7C4FE0226074696FAA6F3226896FA6A
:1046E000A6F3B3FA83F303F01F0322FA03F3D90707
:1046F0007FF5EEAEFFF7B2FEC01B0228ECD95BE7F8
:10470000FFF7ACFEC01B02287FF6F6AE54E793FA23
:10471000A3F3B3FA83F341F82320FFF79FFE0226A9
:10472000074696FAA6F396FAA6F3626A96FAA6F3F5
:10473000B3FA83F303F01F0322FA03F3D8077FF5DC
:10474000EEAEFFF78BFEC01B0228EAD934E7214CFE
:10475000224EE36943F08053E361E36903F0805341
:104760000193019B336843F480733360FFF776FE57
:1047700007463368DA0526D5EB68012B30D1236A6A
:1047800043F001032362FFF769FE02268146B0462B
:1047900041F2883796FAA6F396FAA6F3002B55D085
:1047A000226A98FAA8F3B3FA83F303F01F0322FAFC
:1047B00003F3DB073FF5B7AEFFF750FEA0EB0900B0
:1047C000B842E7D9F8E6FFF749FEC01B6428D0D904
:1047D000F2E600BF00100240800442420070004038
:1047E00033BB236A022623F001032362236A374680
:1047F00023F004032362FFF731FE41F2883980463B
:1048000096FAA6F396FAA6F313B3226A97FAA7F3D9
:10481000B3FA83F303F01F0322FA03F3D8077FF5FB
:1048200082AEFFF71BFEA0EB08004845E8D9C3E6BF
:10483000052B236A03D143F0040323629FE723F08F
:1048400001032362236A23F004039BE7626AA8E75B
:10485000626ADBE7444C636803F00C03082B3FF407
:1048600088AE022A4FF0807359D193FAA3F3B3FABA
:1048700083F300229B0003F1844303F584031A6051
:10488000FFF7ECFD4FF00076074696FAA6F3226894
:1048900096FAA6F3B3FA83F303F01F0322FA03F3A5
:1048A000D90736D42B6AB3F5803F05D16268A96871
:1048B00022F400320A4362606268696A22F4741268
:1048C0000B43134363604FF0807393FAA3F3B3FA7F
:1048D00083F301229B0003F1844303F584031A60F0
:1048E000FFF7BCFD4FF00075064695FAA5F3226868
:1048F00095FAA5F3B3FA83F303F01F0322FA03F347
:10490000DA073FF514AEFFF7A9FD801B0228ECD9AA
:1049100052E6FFF7A3FDC01B0228B6D94CE693FA76
:10492000A3F3B3FA83F300229B0003F1844303F55E
:1049300084031A60FFF792FD4FF00075064695FA62
:10494000A5F3226895FAA5F3B3FA83F303F01F03E6
:1049500022FA03F3DB077FF5EAADFFF77FFD801B4B
:104960000228ECD928E600BF0010024030B5204BE9
:1049700087B002AC03F11005224618685968083365
:1049800003C2AB421446F7D101238DF80430022351
:10499000184C8DF80530616801F00C03082B24D108
:1049A0004FF4701393FAA3F3B3FA83F201F4701384
:1049B000D34006AA134413F8100CCB0313D5636835
:1049C0004FF4003292FAA2F2B2FA82F203F4003308
:1049D000D34006AA134413F8142C074BB3FBF2F38D
:1049E000584307B030BD054BFAE70348F9E700BF6D
:1049F0002CA200080010024000127A0000093D00BD
:104A0000554A2DE9F0411368064603F007038B422F
:104A10000D4630D3326894073AD4D00740D44E4A7A
:104A2000136803F007039D42C0F0848032684B4C4A
:104A300012F0040F40F08980130706D563683269CD
:104A400023F4605343EAC2036360FFF78FFF636898
:104A5000F02292FAA2F2B2FA82F203F0F003D3400B
:104A60003F4AD35CD8403F4B18600F20FEF784FAD2
:104A70000020BDE8F081136823F007030B431360A7
:104A8000136803F007039942C4D00120BDE8F08108
:104A90003249B0684B6823F0F00303434B60BCE736
:104AA00072682E4C012A28D14FF4003393FAA3F1F7
:104AB000216893FAA3F3B3FA83F303F01F0321FAF7
:104AC00003F3D907E1D5636841F2883823F0030383
:104AD0001A436260FFF7C2FC73680746012B12D1CC
:104AE000636803F00C03042B99D0FFF7B7FCC01BDD
:104AF0004045F5D90320BDE8F081022A0CBF4FF0F4
:104B000000730223D2E7022B0FD1636803F00C037A
:104B1000082B84D0FFF7A2FCC01B4045F5D9E9E77C
:104B2000FFF79CFCC01B4045E4D8636813F00C0FF2
:104B3000F6D174E7136823F007032B43136013685F
:104B400003F007039D42A0D170E76368F16823F486
:104B5000E0630B4363606FE70020024000100240F7
:104B600014A2000808010020084B4FF4E0625B68C3
:104B700092FAA2F2B2FA82F203F4E063D340044A5A
:104B8000D35C044A1068D840704700BF0010024050
:104B900024A2000808010020084B4FF460525B6813
:104BA00092FAA2F2B2FA82F203F46053D340044ABA
:104BB000D35C044A1068D840704700BF0010024020
:104BC00024A20008080100200F2303600B4B5A6841
:104BD00002F0030242605A6802F0F00282605A68F2
:104BE00002F4E062C2605B68DB0803F4E063036127
:104BF000034B1B6803F007030B6070470010024073
:104C0000002002402DE9F843044690461F46089EC6
:104C1000C1F307498DB22368B9F1010F0CBF5B697D
:104C20009B6935EA03030CBF01230023434502D0EF
:104C30000020BDE8F8837B1CEDD05FB90023202263
:104C4000236384F83C3084F83D20032084F83E3010
:104C5000BDE8F883FFF702FC801B8742DBD2EDE75B
:104C60007047000070B50446002863D090F83D30CE
:104C700003F0FF021BB980F83C20FFF7F1FF24236B
:104C8000226884F83D3013682B4E23F00103136033
:104C9000FFF76AFF6368294DB342B0FBF5F588BFA3
:104CA0004FF49671226888BF6943556085BF4FF401
:104CB0007A75B1FBF5F1691C0131B342116221D85B
:104CC0005B00B0FBF3F0C0F30B03032B98BF042091
:104CD000216AE369D0610B431360E1682369002016
:104CE0000B439360A16963690B43D360136843F07E
:104CF000010313602023206484F83D30206384F88E
:104D00003E0070BDA16849B903EB4303B0FBF3F06B
:104D1000C0F30B0363B140F40040D9E719214B43C2
:104D2000B0FBF3F0C0F30B0313B140F44040CFE706
:104D30000120CDE7012070BDA086010040420F0098
:104D400073B500240094019490F83D40069D202CFA
:104D500002D0022002B070BD042D32D0012D30D01F
:104D600090F83C40012CF4D0012480F83C400468C9
:104D70002668F6075EBF266846F0010626602668AC
:104D800026F400662660212680F83D60102680F813
:104D90003E60002606644385C562438D41640385F9
:104DA000036B42620093009B122B01D0009B2BBB34
:104DB000042D01D0012D1ED1236843F4807323609C
:104DC0001CE046F2A816124C2468B4FBF6F619242F
:104DD00074430194019C661E01963CB92023046330
:104DE00080F83C4080F83D300320B3E70468A469B4
:104DF000A407EFD4B4E7009B122BDDD00023626838
:104E000080F83C3042F4E06262601846A2E700BFDE
:104E10000801002073B50024019490F83D40069DE0
:104E2000202C02D0022002B070BD042D37D0012DFD
:104E300035D090F83C40012CF4D0012480F83C405F
:104E400004682668F6075EBF266846F001062660FD
:104E5000266826F400662660222680F83D6010262B
:104E600080F83E60002606644385C562438D416438
:104E70000385036B4262112B01D0036B63BB042DCE
:104E800004D0012D02D015F5803F22D1236843F4D0
:104E900080632360236843F4807323601CE046F240
:104EA000A816124C2468B4FBF6F619247443019436
:104EB000019C661E01963CB92023046380F83C40A7
:104EC00080F83D300320AEE70468A469A407EFD45E
:104ED000AFE7036B112BD9D00023626880F83C3018
:104EE00042F4E062626018469DE700BF08010020BE
:104EF00090F83D30202B14D1282380F83D300368F2
:104F000000201A68D2075EBF1A6842F001021A60D8
:104F10001A6842F480621A605A6842F440725A6019
:104F200070470220704700002DE9F04F044685B01D
:104F3000984689469246FFF791FA94F83D30064626
:104F4000202B03D0022005B0BDE8F08F009019237C
:104F500001224B492046FFF755FE0028F2D194F874
:104F60003C30012BEED0012384F83C30236800252F
:104F70001A68DFF80CB1D20758BF1A6809F0FE09A9
:104F80005CBF42F001021A601A6822F400621A60E3
:104F9000242384F83D303B4B2564E36222684FF0C4
:104FA00001111368204643F4807313600096434652
:104FB0000022FFF727FE08B10320C4E72368A027DB
:104FC000C3F81090FFF74AFA0646236859695A69F0
:104FD00094F83D30C1F34001C2F38022DBB211B935
:104FE0000AB9A02B20D12027236884F83D705A6984
:104FF00012F0020F1A6842F400721A602AD00022DE
:1050000003925A691E4903929B6901220393039BF1
:10501000009619232046FFF7F5FD0028CCD184F82F
:105020003D7084F83C008EE7B8F1000F0CD184F895
:105030003D70236859695A6994F83D30C1F34001C5
:10504000C2F38022DBB2CAE7FFF708FA801B804573
:10505000EDD3EEE76FF4806259465A612046009620
:1050600019230122FFF7CEFD0028A5D10135AA455D
:1050700094D884F83C0084F83D70012063E700BFB9
:10508000020010000000FFFF7047704790F83D30AD
:1050900010B5293B012B0446036839D8002202636E
:1050A000282280F83D201A6822F400621A605A68AB
:1050B00012F4006254D05A68606B22F400625A60A5
:1050C00090F82130012B394B31D0436300F0AAFD19
:1050D00050B12268606B136823F001031360202332
:1050E00084F83D30436B984794F83D30282B0ED11F
:1050F000236C5B070BD52E4B2022E3620023204656
:10510000236384F83D2084F83E30FEF741FA10BD59
:1051100090F83D20602A05D05A6812055CBF202215
:1051200080F83D200022226384F83E20BBE7A06B7C
:10513000436300F077FD0028D6D0226853695806F3
:1051400004D5636A1269591C61621A702268A06BE7
:10515000136823F001031360202384F83D30C1E776
:1051600094F83D10602914D1202184F83D10226468
:105170005A69510604D5626A1B69511C6162137039
:1051800022682046136823F001031360FEF702FA39
:10519000AAE75A69520604D5626A1B69511C61620A
:1051A00013702046FEF7C6F99EE700BFF9590008C4
:1051B0000000FFFF0368F0B59D6959695A6890F8CF
:1051C0003E408DB0E4B2102C02D0402C40F06F82F3
:1051D00011F0011F66D0970564D590F83E40402C31
:1051E00043D1046D002C3BD1446C04F0FE041C61DF
:1051F000944E954C2E400C40002E00F0A281934D11
:105200000D40002D00F06981550540F16681002CAC
:1052100040F0638190F83D20058D90F83E10D2B2A9
:10522000C9B2C46A002D40F01781212A40F01681CE
:10523000042C00F06F81082C00F06C8114F5803F85
:1052400000F068815A6822F4E0625A601123036317
:1052500080F83E50202380F83D30FEF737F918E102
:10526000446C44F00104E4B2C1E70469B4F5804F32
:1052700005D190F83D40212C446CF2D1B5E7046D86
:1052800034B9446CE41104F0060444F0F004AEE7D1
:10529000046D012CACD1446CE41104F0060444F01C
:1052A000F104A4E76A4C0C401CB1960501D5446C8E
:1052B000D9E7684C0C40002C9AD0940598D590F80A
:1052C0003E40C66AD0F830E090F83D70E4B2222F3C
:1052D00040F0AF80076D47B9402C06D100975C695C
:1052E00000949C690094009C82E7046D8CB9076966
:1052F000B7F5404F0DD101945C6901949C6901940C
:10530000019C1C6844F480741C60046D01340465C5
:105310006EE7448DA4B254B902945C6902949C690E
:105320000294029C1C6844F400741C6019E0448DD3
:10533000A4B2012C42D116F5803F1BD11C6824F485
:1053400080641C605C6814F400640CD01C6824F455
:1053500080641C60002403945C6903949C6903943A
:10536000039C0024D3E704945C6904949C6904942E
:10537000049CD7E7042E15D0082E13D0BEF1120FCF
:1053800010D0C46A022C1C6814BF24F4806444F456
:1053900080641C60002405945C6905949C690594F4
:1053A000059CDEE71C6824F480641C6000240694DD
:1053B0005C6906949C690694069CB3E7448DA4B28C
:1053C000022C23D1C46A0026022C1C6814D044F499
:1053D00000641C6007965C6907949C690794079CAD
:1053E0001C6824F480641C605C682705B9D55C687F
:1053F00044F480545C60B4E744F480641C60089614
:105400005C6908949C690894089CEDE71C6844F466
:1054100080641C605C68260542BF5C6844F480546C
:105420005C60002409945C6909949C690994099C56
:1054300097E700240A945C690A949C690A940A9C80
:10544000D6E600BF04001000040001008000010047
:105450000800010002000100212A03D0402918D1D0
:10546000222A16D1428D92B222B95A6822F4806261
:105470005A600EE090F83E20402A28D1026D82B991
:10548000C26C012A826C06D1D2B21A61036D02335A
:1054900003650DB0F0BDC2F307221A61036D01333D
:1054A000F6E7026D012A02D1826CD2B2F5E7026DF5
:1054B000022AEED190F83D20222A04D11A6842F443
:1054C00080721A60E5E790F83D20212AE1D1426A16
:1054D000511C416212781A619AE0002CD9D09405CF
:1054E000D7D5C16A90F83D20212AD2D1428D92B2FF
:1054F000002AECD104290DD008290BD011F5803FEA
:1055000008D0596821F4E06159601123036380F8E1
:105510003E209FE65A6822F4E0625A601A6842F41C
:1055200000721A6000232022036380F83D2090F867
:105530003E2080F83E30402A7FF48FAEFFF7A4FD76
:10554000A7E79C4D0D40002D47D0510545D5002CB7
:1055500043D190F83D20222A9BD1428D92B2032A5A
:1055600005D9426A1B69511C4162137050E0023A2E
:10557000012A1A6822F480621A6004D81A6842F478
:1055800000621A6071E7C26A022A02BF1A6842F416
:1055900000621A605A6822F4E0625A60426A1B692B
:1055A000511C41621370438D013B9BB2438590F8BF
:1055B0003D2090F83E3002F00302134303632023A2
:1055C00080F83D3090F83E30402B4FF0000380F8DB
:1055D0003E3069D1FFF759FD5BE7002C3FF459AF2E
:1055E00097057FF556AFC26A418D89B20329416A9A
:1055F00013D1042A04D0082A02D012F5803F03D127
:105600001A6822F480621A601B694A1C42620B709D
:10561000438D013B9BB243853BE7448DA4B2022CF2
:10562000F2D1042A39D0082A37D012F5803F34D07D
:105630001C68013A24F480641C60012A9EBF1A6829
:1056400042F480721A6090F83D4090F83E2004F0D9
:105650000304224302631B694A1C42620B70438DA0
:10566000013B9BB24385436A5A1C4262026812693D
:105670001A70438D0268013B9BB24385536823F443
:1056800040735360202380F83D300023036390F87B
:105690003E2080F83E30402A9BE7122202631A68BF
:1056A00042F400721A60D6E7FDF72DFFF1E6424C96
:1056B0000C4074B196050CD599699B6981F0040181
:1056C0001D06C1F3800154BF8289028BFDF74EFF96
:1056D000DFE63A4C0C40002C74D0940572D590F85B
:1056E0003D205968D2B221F4E061596000210B914C
:1056F00059690B91196841F0010119600B991968FA
:1057000021F480611960596809050CD590F83D10A5
:10571000222903D090F83D102A2929D1816B0968EC
:10572000496889B24185418D89B2E1B159694F0714
:1057300008D5416A1B694C1C44620B70438D013BC8
:105740009BB2438501684B695E0608D5436A0969C7
:105750005C1C44621970438D013B9BB24385036C12
:1057600043F004030364036C23B1FFF78FFC90E65E
:10577000416BD4E7A2F1280102290AD8104AC2627B
:105780002022036380F83D2080F83E30FDF700FFC3
:105790007FE6036B222B02D0222A7FF47AAE00230D
:1057A0002022036380F83D2080F83E30FDF7ECFEB8
:1057B0006FE600BF40000100020001001000010080
:1057C0000000FFFF394E3A4C2E400C40002E36D0E0
:1057D000384D0D403DB3550525D524BB90F83D10FF
:1057E000428DC9B292B2002A3FF453AE426A541CB1
:1057F000446212781A61428D013A92B24285428D1A
:1058000092B2002A7FF445AE29297FF442AE5A684D
:1058100022F480625A6021230363282380F83D30FC
:10582000FDF7AEFE35E6002C3FF433AE94057FF570
:1058300030AE428D92B2002A7FF449AE29E61E4D69
:105840000D4035B3510524D51CBB90F83D20418D4A
:10585000D2B289B200293FF41CAE416A1B694C1CCC
:1058600044620B70438D013B9BB24385438D9BB2D9
:10587000002B7FF40EAE2A2A7FF40BAE0268536829
:1058800023F48063536022230363282380F83D3090
:105890008CE7002C3FF4FDAD92057FF5FAAD428D0B
:1058A00092B2002A7FF45DAEF3E500BF0400100061
:1058B000040001008000010040000100F8B5036809
:1058C0004B4A5E69044616425D680CD0E8050AD56D
:1058D000226C42F0010222646FF480725A611A68ED
:1058E00042F400421A6016F4813F08D0E90506D55B
:1058F000226C42F0020222646FF400725A6116F4C4
:10590000823F36D0EA0534D594F83E70618D94F824
:105910003D20202F89B2D2B2206B58D1002956D118
:1059200002F0F701212903D0282A50D121284ED195
:1059300094F83D20E16AD2B2042901D008292CD183
:10594000282A2AD12B4A2046E2625A6822F4E062D1
:105950005A606FF480625A611A6822F480621A6099
:1059600000232022236384F83D2084F83E30FDF795
:105970000FFE16F4843F09D0EB0507D56FF40062E3
:10598000236C43F00803236423685A61236C73B3C8
:105990002046BDE8F840FFF779BB212A23D11549FD
:1059A0002046E1622263202284F83D20002284F810
:1059B0003E205A6822F4E0625A606FF480625A61B5
:1059C0001A6822F480621A60FDF7DAFDD1E7226CD2
:1059D00042F00402226494F83E20102A02BF1A68A2
:1059E00042F400721A606FF480625A61C1E7F8BD38
:1059F000000101000000FFFF406A08B50368416B29
:105A00001A6822F480621A60002242854A63816B20
:105A10004A6390F83D1060294FF0200180F83D1056
:105A200080F83E2007D102641A6822F001021A6051
:105A3000FDF7B0FD08BD1A6822F001021A60FDF7FB
:105A400079FD08BD074A0002D36800F4E06023F442
:105A5000E0631B041B0C43F0BF6343F400330343B8
:105A6000D360704700ED00E00122430900F01F0001
:105A700002FA00F0044A203342F82300BFF34F8FAC
:105A8000BFF36F8F704700BF00E100E02DE9F047E2
:105A90000568C2682B69016923F4405313432B61E5
:105AA0008368EA680B43416922F4B05222F00C0289
:105AB0000B431343EB606B69826923F44073134318
:105AC0006B61404B81469D424FF0190446D1FFF770
:105AD00063F804FB00F3D9F804604FF06408B600E3
